S01300006576627465726D696E616C2E7372656378
S113B0000070002029B5000091B5000091B5000042
S113B01091B5000091B5000091B50000000000005A
S113B02000000000000000000000000091B50000D6
S113B03091B500000000000091B5000091B500003A
S113B04091B5000091B5000091B5000091B50000E4
S113B05091B5000091B5000091B5000091B50000D4
S113B06091B5000091B5000091B5000091B50000C4
S113B07091B5000091B5000091B5000091B50000B4
S113B3F091B5000091B5000091B50000FFFFFFFF7B
S113B400FFFFFFFFFFFFFFFFFFFFFFFFFE7FFFFFC9
S113B410044B05481B1A062B02D9044B03B11847E9
S113B420704700BFAB8DFF1FA88DFF1F00000000F9
S113B43005490648091A891001EBD171491002D057
S113B440034B03B118477047A88DFF1FA88DFF1F3A
S113B4500000000010B5064C237843B9FFF7D8FF6D
S113B460044B13B10448AFF300800123237010BDD3
S113B4700000002000000000B42B010008B5084BB8
S113B4801BB108490848AFF300800848036813B9A2
S113B490BDE80840CCE7064B002BF9D09847F7E706
S113B4A00000000004000020B42B0100A48DFF1F45
S113B4B000000000154B002B08BF134B9D46A3F55D
S113B4C0803A00218B460F461348144A121A02F0A0
S113B4D01EF80F4B002B00D098470E4B002B00D0CA
S113B4E098470020002104000D000D48002802D0D8
S113B4F00C4806F046FC01F0A9FD2000290001F0EB
S113B500F7FC01F093FD00BF00000800007000206C
S113B5100000000000000000000000207C02002069
S113B520831D010015FE000072B64FF000014FF0BC
S113B53000024FF000034FF000044FF000054FF0FD
S113B54000064FF00007B846B946BA46BB46BC46AB
S113B5500A490B4A521A013A05DD00200423086007
S113B5601944043AFBDA07488546074880470748E8
S113B570804762B6FFF79EFFFEE700000080FF1FD2
S113B5800070002000700020A1CF000005CF000053
S113B590FFF7FEBF10F8012B11F8013B012A28BF69
S113B5A09A42F7D0D01A7047034613F8012B002AA9
S113B5B0FBD1181A01387047000000000000000099
S113B5C001F0FF01102A2BDB10F0070F08D010F850
S113B5D0013B013A8B422DD010F0070F42B3F6D154
S113B5E0F0B441EA012141EA014122F007047FF06D
S113B5F000070023F0E80256083C85EA010586EAC4
S113B600010685FA47F5A3FA87F586FA47F6A5FAFF
S113B61087F68EB9EED1F0BC01F0FF0102F007020B
S113B62032B110F8013B013A83EA010313B1F8D1B6
S113B6300020704701387047002D06BF3546033897
S113B640073815F0010F07D1013015F4807F02BFD0
S113B650013015F4C03F0130F0BC0138704700BF21
S113B66081F0004102E000BF83F0004330B54FEAAF
S113B67041044FEA430594EA050F08BF90EA020F1C
S113B6801FBF54EA000C55EA020C7FEA645C7FEAAF
S113B690655C00F0E2804FEA5454D4EB5555B8BFD2
S113B6A06D420CDD2C4480EA020281EA030382EA43
S113B6B0000083EA010180EA020281EA0303362DD5
S113B6C088BF30BD11F0004F4FEA01314FF4801CA8
S113B6D04CEA113102D0404261EB410113F0004FBA
S113B6E04FEA03334CEA133302D0524263EB430371
S113B6F094EA050F00F0A780A4F10104D5F1200E0F
S113B7000DDB02FA0EFC22FA05F2801841F1000169
S113B71003FA0EF2801843FA05F359410EE0A5F13D
S113B72020050EF1200E012A03FA0EFC28BF4CF06E
S113B730020C43FA05F3C01851EBE37101F0004524
S113B74007D54FF0000EDCF1000C7EEB00006EEB31
S113B7500101B1F5801F1BD3B1F5001F0CD34908BB
S113B7605FEA30004FEA3C0C04F101044FEA445212
S113B77012F5800F80F09A80BCF1004F08BF5FEA99
S113B780500C50F1000041EB045141EA050130BD79
S113B7905FEA4C0C404141EB010111F4801FA4F11C
S113B7A00104E9D191F0000F04BF01460020B1FA71
S113B7B081F308BF2033A3F10B03B3F120020CDAA9
S113B7C00C3208DD02F1140CC2F10C0201FA0CF087
S113B7D021FA02F10CE002F11402D8BFC2F1200CEC
S113B7E001FA02F120FA0CFCDCBF41EA0C019040A2
S113B7F0E41AA2BF01EB0451294330BD6FEA0404EB
S113B8001F3C1CDA0C340EDC04F11404C4F12002D5
S113B81020FA04F001FA02F340EA030021FA04F3E7
S113B82045EA030130BDC4F10C04C4F1200220FA3E
S113B83002F001FA04F340EA0300294630BD21FA7C
S113B84004F0294630BD94F0000F83F4801306BF42
S113B85081F480110134013D4EE77FEA645C18BF36
S113B8607FEA655C29D094EA050F08BF90EA020FCD
S113B87005D054EA000C04BF1946104630BD91EAC5
S113B880030F1EBF0021002030BD5FEA545C05D1C8
S113B8904000494128BF41F0004130BD14F5800407
S113B8A03CBF01F5801130BD01F0004545F0FE417B
S113B8B041F470014FF0000030BD7FEA645C1ABFB0
S113B8C0194610467FEA655C1CBF0B46024650EAE7
S113B8D0013406BF52EA033591EA030F41F4002113
S113B8E030BD00BF90F0000F04BF0021704730B599
S113B8F04FF4806404F132044FF000054FF000016E
S113B90050E700BF90F0000F04BF0021704730B52E
S113B9104FF4806404F1320410F0004548BF404203
S113B9204FF000013EE700BF42004FEAE2014FEA58
S113B93031014FEA02701FBF12F07F4393F07F4F33
S113B94081F06051704732F07F4208BF704793F036
S113B9507F4F04BF41F40021704730B54FF4607449
S113B96001F0004521F000411CE700BF50EA01024C
S113B97008BF704730B54FF000050AE050EA0102F5
S113B98008BF704730B511F0004502D5404261EB65
S113B99041014FF4806404F132045FEA915C3FF4A6
S113B9A0D8AE4FF003025FEADC0C18BF03325FEA43
S113B9B0DC0C18BF033202EBDC02C2F1200300FAF4
S113B9C003FC20FA02F001FA03FE40EA0E0021FA19
S113B9D002F11444BDE600BF70B54FF0FF0C4CF407
S113B9E0E06C1CEA11541DBF1CEA135594EA0C0FB9
S113B9F095EA0C0F00F0DEF82C4481EA030621EAF4
S113BA004C5123EA4C5350EA013518BF52EA03352E
S113BA1041F4801143F4801338D0A0FB02CE4FF0E0
S113BA200005E1FB02E506F00042E0FB03E54FF010
S113BA300006E1FB03569CF0000F18BF4EF0010E08
S113BA40A4F1FF04B6F5007F64F5407404D25FEA04
S113BA504E0E6D4146EB060642EAC62141EA5551B7
S113BA604FEAC52040EA5E504FEACE2EB4F1FD0CF9
S113BA7088BFBCF5E06F1ED8BEF1004F08BF5FEA77
S113BA80500E50F1000041EB045170BD06F0004629
S113BA9046EA010140EA020081EA0301B4EB5C04D6
S113BAA0C2BFD4EB0C0541EA045170BD41F48011CE
S113BAB04FF0000E013C00F3AB8014F1360FDEBFF3
S113BAC0002001F0004170BDC4F10004203C35DACF
S113BAD00C341BDC04F11404C4F1200500FA05F352
S113BAE020FA04F001FA05F240EA020001F00042F3
S113BAF021F0004110EBD37021FA04F642EB060169
S113BB005EEA430E08BF20EAD37070BDC4F10C0492
S113BB10C4F1200500FA04F320FA05F001FA04F256
S113BB2040EA020001F0004110EBD37041F1000142
S113BB305EEA430E08BF20EAD37070BDC4F120054D
S113BB4000FA05F24EEA020E20FA04F301FA05F2B5
S113BB5043EA020321FA04F001F0004121FA04F25D
S113BB6020EA020000EBD3705EEA430E08BF20EA2D
S113BB70D37070BD94F0000F0FD101F00046400067
S113BB8041EB010111F4801F08BF013CF7D041EAE9
S113BB90060195F0000F18BF704703F000465200ED
S113BBA043EB030313F4801F08BF013DF7D043EABE
S113BBB00603704794EA0C0F0CEA135518BF95EA74
S113BBC00C0F0CD050EA410618BF52EA4306D1D1FB
S113BBD081EA030101F000414FF0000070BD50EA1A
S113BBE0410606BF1046194652EA430619D094EAA4
S113BBF00C0F02D150EA013613D195EA0C0F05D18E
S113BC0052EA03361CBF104619460AD181EA0301E1
S113BC1001F0004141F0FE4141F470014FF0000099
S113BC2070BD41F0FE4141F4780170BD70B54FF034
S113BC30FF0C4CF4E06C1CEA11541DBF1CEA1355B4
S113BC4094EA0C0F95EA0C0F00F0A7F8A4EB050496
S113BC5081EA030E52EA03354FEA013100F088808D
S113BC604FEA03334FF0805545EA131343EA126356
S113BC704FEA022245EA111545EA10654FEA00260B
S113BC800EF000419D4208BF964244F1FD0404F5C4
S113BC90407402D25B084FEA3202B61A65EB030520
S113BCA05B084FEA32024FF480104FF4002CB6EBDD
S113BCB0020E75EB030E22BFB61A754640EA0C005D
S113BCC05B084FEA3202B6EB020E75EB030E22BF9D
S113BCD0B61A754640EA5C005B084FEA3202B6EBDE
S113BCE0020E75EB030E22BFB61A754640EA9C009D
S113BCF05B084FEA3202B6EB020E75EB030E22BF6D
S113BD00B61A754640EADC0055EA060E18D04FEA2A
S113BD10051545EA16754FEA06164FEAC30343EACA
S113BD2052734FEAC2025FEA1C1CC0D111F4801F97
S113BD300BD141EA00014FF000004FF0004CB6E790
S113BD4011F4801F04BF01430020B4F1FD0C88BF2F
S113BD50BCF5E06F3FF6AFAEB5EB030C04BFB6EB3A
S113BD60020C5FEA500C50F1000041EB045170BD2D
S113BD700EF0004E4EEA113114EB5C04C2BFD4EB5A
S113BD800C0541EA045170BD41F480114FF0000EDE
S113BD90013C90E645EA060E8DE60CEA135594EA5A
S113BDA00C0F08BF95EA0C0F3FF43BAF94EA0C0F5D
S113BDB00AD150EA01347FF434AF95EA0C0F7FF4D2
S113BDC025AF104619462CE795EA0C0F06D152EA26
S113BDD003353FF4FDAE1046194622E750EA41060A
S113BDE018BF52EA43067FF4C5AE50EA41047FF41B
S113BDF00DAF52EA43057FF4EBAE12E74FF0FF3C80
S113BE0006E000BF4FF0010C02E000BF4FF0010C50
S113BE104DF804CD4FEA410C7FEA6C5C4FEA430CC9
S113BE2018BF7FEA6C5C1BD001B050EA410C0CBF18
S113BE3052EA430C91EA030F02BF90EA020F00207A
S113BE40704710F1000F91EA030F58BF994208BFE1
S113BE5090422CBFD8176FEAE37040F0010070479E
S113BE604FEA410C7FEA6C5C02D150EA013C07D1F5
S113BE704FEA430C7FEA6C5CD6D152EA033CD3D040
S113BE805DF8040B704700BF8446104662468C463A
S113BE901946634600E000BF01B5FFF7B7FF00286D
S113BEA048BF10F1000F01BD4DF808EDFFF7F4FF96
S113BEB00CBF012000205DF808FB00BF4DF808ED21
S113BEC0FFF7EAFF34BF012000205DF808FB00BF44
S113BED04DF808EDFFF7E0FF94BF012000205DF866
S113BEE008FB00BF4DF808EDFFF7CEFF94BF01201B
S113BEF000205DF808FB00BF4DF808EDFFF7C4FF14
S113BF0034BF012000205DF808FB00BF4FEA410C5C
S113BF107FEA6C5C02D150EA013C0AD14FEA430C3F
S113BF207FEA6C5C02D152EA033C02D14FF000007C
S113BF3070474FF0010070474FEA410212F50012BA
S113BF4015D211D56FF47873B3EB625212D94FEA5C
S113BF50C12343F0004343EA505311F0004F23FA46
S113BF6002F018BF404270474FF00000704750EA9B
S113BF70013005D111F0004008BF6FF00040704758
S113BF804FF00000704700BF4A0011D212F50012B2
S113BF9011D20DD56FF47873B3EB62520ED44FEA1D
S113BFA0C12343F0004343EA505323FA02F070479D
S113BFB04FF00000704750EA013002D14FF0FF30DB
S113BFC070474FF0000070474FEA4102B2F1E0437E
S113BFD024BFB3F5001CDCF1FE5C0DD901F0004C6C
S113BFE04FEAC0024CEA5070B2F1004F40EB8300BC
S113BFF008BF20F00100704711F0804F21D113F1E8
S113C0003872BCBF01F00040704741F480114FEA20
S113C0105252C2F11802C2F1200C10FA0CF320FAA9
S113C02002F018BF40F001004FEAC1234FEAD323C6
S113C03003FA0CFC40EA0C0023FA02F34FEA430330
S113C040CCE77FEA625307D150EA01331EBF4FF0B9
S113C050FE4040F44000704701F0004040F0FE40D4
S113C06040F40000704700BF53B94AB9002908BF23
S113C07000281CBF4FF0FF314FF0FF3000F07EB9B5
S113C080ADF1080C6DE904CE00F006F8DDF804E02B
S113C090DDE9022304B070472DE9F047089D04460A
S113C0A08E46002B4ED18A4294466DD9B2FA82F75D
S113C0B057B1C7F1200EB94020FA0EFE02FA07FC70
S113C0C04EEA010E00FA07F44FEA1C49210CBEFBAC
S113C0D0F9F61FFA8CF809FB16EE41EA0E4106FB4D
S113C0E008F38B420AD91CEB010106F1FF3280F000
S113C0F027818B4240F22481023E6144C91AA4B2D2
S113C100B1FBF9F009FB101144EA014400FB08F803
S113C110A0450AD91CEB040400F1FF3380F00E8122
S113C120A04540F20B810238644440EA0640A4EB87
S113C130080400267DB1FC4000232C606B6031466E
S113C140BDE8F0878B4209D9002D00F01481002648
S113C15085E8030030463146BDE8F087B3FA83F63C
S113C160002E40F090808B4202D3824200F2FD8088
S113C170841A61EB030101208E46002DEBD085E883
S113C18010403146BDE8F0871AB94FF0010CBCFBF2
S113C190F2FCBCFA8CF7A7BBA1EB0C034FEA1C42E0
S113C1A01FFA8CF80126B3FBF2FE210C02FB1E33AE
S113C1B041EA034108FB0EF38B4208D91CEB010151
S113C1C00EF1FF3002D28B4200F2D1808646C91AAA
S113C1D0A3B2B1FBF2F002FB101143EA014408FBE5
S113C1E000F8A04508D91CEB040400F1FF3302D287
S113C1F0A04500F2B7801846A4EB080440EA0E40BC
S113C20098E7C7F1200301FA07F40CFA07FC20FAB7
S113C21003FED9404FEA1C424EEA040EB1FBF2F68B
S113C2204FEA1E4302FB16111FFA8CF843EA01433E
S113C23006FB08F1994200FA07F40AD91CEB030340
S113C24006F1FF3080F08C80994240F28980023EF2
S113C25063445B1A1FFA8EF1B3FBF2F002FB103356
S113C26041EA034100FB08F38B4208D91CEB0101AE
S113C27000F1FF3E70D28B426ED902386144CB1A72
S113C28040EA06468FE7C6F1200722FA07F8B340D2
S113C29001FA06F448EA030320FA07FC4FEA134EB6
S113C2A0F9404CEA040CB1FBFEF94FEA1C440EFBC6
S113C2B019111FFA83F844EA014109FB08F48C427E
S113C2C002FA06F200FA06FA08D9591809F1FF3001
S113C2D044D28C4242D9A9F102091944091B1FFA1C
S113C2E08CFCB1FBFEF00EFB10114CEA014400FB88
S113C2F008F8A04507D91C1900F1FF312AD2A0453E
S113C30028D902381C4440EA0940A4EB0804A0FBE5
S113C31002894C45C446494616D313D055B1BAEBED
S113C3200C0364EB010404FA07F7F3401F43F440E1
S113C3302F606C6000263146BDE8F0871846F4E6AD
S113C3401646DBE6C245E9D2B8EB020C69EB030101
S113C3500138E3E70846D6E7704690E78146BDE733
S113C360064676E70238644446E7304605E7AEF110
S113C370020E61442BE72E462846ECE6704700BFC8
S113C38008B5082000F086FE10B100230360436066
S113C39008BD00BFC8B1B1B138B504680D4654B189
S113C3A029462068FFF7F6F800280AD06368A468D5
S113C3B003DD002CF4D1204638BD1C46002CEFD1FF
S113C3C0F9E7E06838BD0846704770472DE9F8433F
S113C3D000283ED000293AD0002A3CD00746046801
S113C3E0084690460D46FFF7DFF83E4681464CB9B5
S113C3F011E06168A368CBBF04F10806261D1C4642
S113C4000C4644B129462068FFF7C4F80028F0D14F
S113C4102046BDE8F883102000F03CFE09F1010934
S113C42000230446C0F80C80436083600121484621
S113C43000F0C6FD206018B14A46294601F05CF8B8
S113C4407B6801337B6020463460BDE8F8830C468A
S113C450DEE70446DCE71446DAE700BF08B5FF214F
S113C460044800F0E3F9044B1B6803B1984700202B
S113C47008BD00BFDC2701001C01002010B5084CDA
S113C480206800B110BDFFF77BFF064A0649206013
S113C490FFF79CFF054B1B6803B19847206810BD4C
S113C4A0240200205DC40000F827010020010020C0
S113C4B0F8B578B3194C1A49224600270546277067
S113C4C001F074F8174B21461868FFF763FF06461E
S113C4D090B12046FFF768F804462846FFF764F851
S113C4E0E4B2844234BF28193846B04704460420D5
S113C4F000F092F92046F8BD0B4D0C4A28682346FB
S113C500FF2101F01FF82868FF2100F08FF94FF098
S113C510FF34ECE74FF0FF34ECE700BF24010020C8
S113C520B4270100240200200084FF1FB827010063
S113C53000F00F03012BF0B42FD0022B26D0A64E0F
S113C540A64BA74F33606C233B60C3B2113B332B24
S113C55000F2CB80DFE803F09DBDC9B9C9C9C9C9E0
S113C560C9C9C9C9C9C9C9C9AD91C9C5C9C9C9C98F
S113C570C9C9C9C9C9C9C9C9C9C9C9C9C9C9C9C927
S113C580C9C9C9C9C9C9C9C9C1A9C928924E954B44
S113C590934F33606B233B60D7E78F4E924B904FA2
S113C5A033606A233B60D0E74FF4407511228F4C0F
S113C5B08F49D4F8303143F08043C4F8303151F816
S113C5C02230DFF850C28B4C2B4341F8223040F626
S113C5D00F730340CCF8002040F202220021934262
S113C5E0216000F0DE8000F28C80B3F5817F00F0E2
S113C5F0EA8040F2A180B3F5827F00F0CE8040F261
S113C6000122934240F0BB8078497B4AD1F828311B
S113C61043F08043C1F82831154622604FF4007C72
S113C62001213B6855F821203468744E9B0042EA8E
S113C6300C0203F1804345F8212003F5CA23704D11
S113C6401A68316022F080421A60C0F3074019680A
S113C6506C4A05FB00F0B2FBF0F20132C2F30C02AB
S113C660002541F08C4142F0E0524FF44020196023
S113C67025612261A061F0BC70474FF40075082267
S113C6805A4C6149D4F82C3143F08043C4F82C311E
S113C69095E74FF4C0650222544C5C49D4F8243128
S113C6A043F08043C4F8243189E74FF440750D22E8
S113C6B07DE74E4A5049D2F8283143F08043C2F80E
S113C6C028314FF40075002279E74FF400750822F1
S113C6D0E2E74FF400750622D2E74FF480650222A8
S113C6E0CEE74FF40075062261E7404A4049D2F88C
S113C6F0303143F08043C2F830314FF400750622E4
S113C7005DE740F20142934259D027D940F20242F8
S113C71093425CD040F20442934230D133493C4AC4
S113C720D1F8343143F08043C1F8343115462260E6
S113C7304FF4407C0C2174E740F2011293421ED165
S113C7404FF4C06C0321294D304AD5F8243143F00D
S113C7508043C5F824311546226062E7B3F5017FB2
S113C7600DD14FF4007C0721204D214AD5F83031FA
S113C77043F08043C5F830311546226051E71B4928
S113C7801B4AD1F8303143F08043C1F830311546AB
S113C79022604FF4007C072143E74FF4007C092119
S113C7A0D1E74FF4007C0921104D174AD5F82C31FC
S113C7B043F08043C5F82C311546226031E74FF42D
S113C7C0806C0321F0E74FF4007C0721ECE74FF481
S113C7D0407C0E21C8E700BF2C02002000C00640A8
S113C7E02802002000B0064000A006400050064089
S113C7F000C004403002002000A0044038020020A1
S113C8000065040000B4C40400B004400090044077
S113C81000D0044034020020034B1A6853691B0201
S113C820FCD5D061704700BF2C02002010B3F8B5CE
S113C8300646D9B14D1E104B0021A9421A684FF08B
S113C8400D070BD0705C48B1044653691B02FCD53C
S113C8500A28D46109D00131A942F3D153691802DD
S113C860FCD50A24D7612046EFE7F8BDFEF79CFE0D
S113C8700146DFE7704700BF2C02002000285ED08D
S113C880F0B500252F4E057032682C46AC464F1E7D
S113C8904FF03F0EBAB153699B02FCD5D369DBB2AA
S113C8A04DB923F02002413A192A0FD80355013417
S113C8B0BC4221D000250D2B24D00A2B22D00BB34F
S113C8C03268002AE7D105B1FEE7FF23A3F1300265
S113C8D0092AEBD9202B22D0042B17D0FF2B15D0FB
S113C8E00D2B13D00A2B11D00BB300F804E0013444
S113C8F0BC4201D00025E3E70D2B00F804C04FF043
S113C9000105DAD1002303552046F0BD01398C42DC
S113C910F8D100230355002303552046F0BD0355E9
S113C9200134BC42E6D100F804C00125C8E701394E
S113C9308C42E7D10355002303552046F0BD4FF048
S113C940FF3070472C020020534B544A10B54FF669
S113C950FF715A604FF40452996016201A6000F077
S113C960A9F84F4B4F4A1A211961D2F8003213F437
S113C9700003FAD1012040F20111C2F80032C2F8DA
S113C9800802C2F80412D2F8003246490343C2F83E
S113C9900032D1F80032DC01FBD5424AD2F8003330
S113C9A013F40003FAD140F20111C2F80033C2F8C3
S113C9B00833C2F80413D2F800333A4943F00103B0
S113C9C0C2F80033D1F80033D801FBD5D1F80031D7
S113C9D0DA0132D4D1F80023334B344812F0807F8B
S113C9E018BF18462F4AD2F8003613F40003FAD1C0
S113C9F040F202242B49C2F80036C2F80446C2F8B9
S113CA000806D1F800361B02FBD4D1F80036254ABB
S113CA1043F00103C1F80036D2F80036DC01FBD53F
S113CA20234B5361D2F80036D80108D51D4A136947
S113CA30C3F30363062BFAD110BD1C48D2E7D2F826
S113CA400031D9011FD51948164AD2F8003613F41B
S113CA500003FAD140F202241249C2F80036C2F8A7
S113CA600446C2F80806D1F800361A02FBD4D1F8FD
S113CA7000360C4A43F00103C1F80036D2F8003600
S113CA80DB01FBD5D2E7D2F80023074B074812F0AD
S113CA90807F18BF1846D7E70020054020C528D955
S113CAA000800440004006400105180000051800FD
S113CAB012000106430900F160419B0001F5614148
S113CAC003F1604310B403F56143002481F800438B
S113CAD000F01F020120D3F8801110BC9040C04325
S113CAE00140C3F880111A6810401860704700BFF5
S113CAF010B5084C206850B1074A0849FFF766FC96
S113CB002068074A0749FFF761FC002010BD4FF079
S113CB10FF3010BD2402002079CB000088280100DA
S113CB2029CC00008C28010008B5FF210C48FFF730
S113CB307DFEFF210B48FFF779FEFF210A48FFF72E
S113CB4075FEFF210948FFF771FEFF210848FFF732
S113CB506DFEFF210748FFF769FE002008BD00BFF6
S113CB600028010018280100402801005028010075
S113CB706C28010068280100002846D030B585B033
S113CB8004AC002544F80C5D02AA21490295234611
S113CB90CDF80B5000F00AFD02A803221D4900F055
S113CBA031FDA0B9012502A803221B4900F02AFD8A
S113CBB018B303221949204600F024FDB0FA80F18D
S113CBC04909284600F0E4F8002005B030BD0522EC
S113CBD0134902A800F016FD38B10422114902A835
S113CBE000F010FD18B90325DDE70225DBE702A8F4
S113CBF00322094900F006FD20B900F0BFF8002027
S113CC0005B030BD4FF0FF30DFE74FF0FF30704725
S113CC10A0280100A8280100C0280100BC280100A8
S113CC20AC280100B4280100002836D010B586B025
S113CC3006AB00221A4C43F8102D0192194901AA9F
S113CC4000F0B4FC2268019B9A420AD000F008F973
S113CC50019BE3B1012B03D1134800F0CDF8019BF4
S113CC6023600024BDF8080004940394CDF8134015
S113CC7000F01EF90D4A03460A2103A800F062FCE5
S113CC8003A8FF21FFF7D2FD204606B010BD0848D7
S113CC9000F0B2F8019B2360E3E74FF0FF307047E8
S113CCA00484FF1F902801000070024098280100AE
S113CCB000B0034010B50949094B0A4C0A4A0C60FC
S113CCC004461A60FFF740FE00F02AF82046FFF7FA
S113CCD02FFCBDE81040FFF7D1BB00BF20010020AE
S113CCE01C010020F1CA000029CB000000B5C1B02E
S113CCF06846FF22002100F00AFCFF216846FFF786
S113CD00BDFD40B16846FFF7D3FBFF216846FFF73E
S113CD10B5FD0028F6D10420FFF77EFDEDE700BF46
S113CD201348144BD0F83011134A41F08041C0F835
S113CD303011596941F400415961596941F4803114
S113CD405961596941F001015961D16B41F4807114
S113CD50D163116C41F480711164116841F48071E4
S113CD6011605A6842F0011242F400425A6070475E
S113CD7000500640C0F00F4000C00440034A53680E
S113CD8043F0011343F4004353607047C0F00F4075
S113CD9031B1022816D0032826D0012818D07047B4
S113CDA0022809D0032819D00128F8D1114A536860
S113CDB043F40043536070470E4A536843F480338E
S113CDC0536070470B4A936843F480339360704711
S113CDD0084A936843F4004393607047054A5368D4
S113CDE043F0010353607047024A936843F0010320
S113CDF093607047C0F00F40174B184998420246A1
S113CE00086006D0A3F5A033984223D04FF0FF303A
S113CE1070473B239B0003F1804303F5CA2370B49E
S113CE20196821F080411960196841F00071196096
S113CE30186800211F26042540F080400D24186046
S113CE401660084615645464C2F8901070BCC2F8A9
S113CE50941070472723DDE700B003403C02002014
S113CE60104B11491A688A4210D010498A4202D0E4
S113CE7000221A60704701F57831D1F89C2022F025
S113CE808042C1F89C2000221A60704701F52831C5
S113CE90D1F8EC2022F08042C1F8EC2000221A6084
S113CEA0704700BF3C02002000B003400070024005
S113CEB00D4B1B68B3B11A6800F01F0022F01F026B
S113CEC01A6018601A681206FCD59A6C074B41F276
S113CED0883000FB02F0A3FB0023C01A03EB5003CD
S113CEE0D80A7047184670473C0200200101100020
S113CEF008B50348FFF7DEFEFFF7F8FEFCE700BFC6
S113CF00240260001749184A914208B503D0521A06
S113CF10164800F0F1FA1649164A914203D0521A03
S113CF20154800F0E9FA1548154A904203D0121A40
S113CF30002100F0ECFA1349134A914203D0521A2B
S113CF40124800F0D9FA124B12498B4207D0124A08
S113CF50920804D01846920000F0CEFA03460F4A15
S113CF60136008BDE02B0100883501000084FF1F19
S113CF708835010088350100A88DFF1F00000020BE
S113CF807C02002088350100883501000000002063
S113CF900080FF1F00B000000004000008ED00E066
S113CFA0054B064A5A6042F220114FF6FF72586848
S113CFB019609A60704700BF0020054020C528D939
S113CFC0024B0A460146186800F002B80884FF1FA5
S113CFD010B5514300F06EF8044698B150F8042C93
S113CFE022F00302043A242A1BD8132A17D9002159
S113CFF01B2A0160416007D800F1080300221A606F
S113D0005A609A60204610BD242A8160C16011BF15
S113D01000F11003016100F118034161EEE70346DA
S113D020ECE7002100F073FAECE7000008B50021FA
S113D030044602F043F8044B1868C36B03B19847E5
S113D040204605F0B5FB00BFC428010070B50D4EA5
S113D0500D4CA41BA4100025A54209D10B4E0C4C69
S113D06005F0A8FDA41BA4100025A54205D170BDA0
S113D07056F8253098470135EEE756F8253098479D
S113D0800135F2E7D42B0100D42B0100D42B01008D
S113D090DC2B0100024B0146186800F00BB800BFFE
S113D0A00884FF1F024B0146186802F017BF00BF37
S113D0B00884FF1F2DE9F74F01F10B05162D0646D5
S113D0C006D935F0070504D50C233360002445E167
S113D0D010258D42F8D3304600F021FAB5F5FC7FD7
S113D0E0A54F39D205F108023A44A2F10801546867
S113D0F08C424FEAD50302D1D468A24210D06368AF
S113D100E268A16823F00303CA60234491605A686B
S113D11042F001025A60304600F002FA08341DE180
S113D1200233964A3C699442114675D0606820F0F7
S113D1300300A0EB050CBCF10F0F48DD631945F0AB
S113D140010565607B613B61DA609A604CF0010225
S113D1505A6044F800C0DEE76B0A2AD0042B12D8C8
S113D160AB0938335A1C07EBC202A2F10800546819
S113D170844206D0626822F00302511B0F291CDD91
S113D180013B0133CDE7142B01D85B33EAE7542B81
S113D19002D82B0B6E33E5E7B3F5AA7F02D8EB0B6D
S113D1A07733DFE740F25452934204D8AB0C7C331C
S113D1B0D8E73F23D6E77E23D4E70029E16804DBE0
S113D1C0A368D9608B60A318A1E70C46D0E7BCF133
S113D1D0000F7A613A6105DB2044436843F00103A0
S113D1E0436098E7B0F5007F4BD2C0084FEAA00C2B
S113D1F0012202FA0CFC7A6801304CEA02027A60DD
S113D20007EBC00257F830C0C4F808C0083AE2601F
S113D21047F83040CCF80C4001209A1000FA02F292
S113D2207868824200F2AC80024206D123F0030304
S113D2305200024203F10403FAD007EBC308C146CB
S113D2409E46D9F80C404C455AD10EF1010E1EF001
S113D250030F09F10809F4D1980740F085807B6831
S113D26023EA02037B6078685200824200F28880DD
S113D270002A00F0858073460242DED10433520056
S113D280FAE7420A042A17D88209383202F1010C5B
S113D29007EBC20E57F83CC0E64528D10120921096
S113D2A000FA02F2786810437860C4F80CE0C4F81D
S113D2B008C0CEF80840ADE7142A01D85B32E5E790
S113D2C0542A02D8020B6E32E0E7B2F5AA7F02D8E4
S113D2D0C20B7732DAE740F2545C62459ABF820CA3
S113D2E07C327E22D2E7DCF808C0E64505D0DCF8C3
S113D2F0042022F003029042F5D3DCF80CE0D4E7DA
S113D3006068D4F80CC020F00300A0EB050ABAF161
S113D3100F0F12DDA268631945F001056560C2F8BC
S113D3200CC0CCF808204AF001027B613B61D96053
S113D33099605A6044F800A0EDE6BAF1000F11DBE1
S113D3402044436843F00103436054F8083F3046E7
S113D350C3F80CC0CCF8083000F0E2F8204603B063
S113D360BDE8F08F64466EE758F80809804503F17C
S113D370FF333FF471AF76E72888FF1F3088FF1F23
S113D380D7F808A0DAF8044024F00302954203D841
S113D390531B0F2B00F39B80524B1C68524B196894
S113D3A02C4401311DBF04F580540F3424F47F64F0
S113D3B0103418BF24F00F04214630460AEB02084B
S113D3C08DE80C0000F0AEF8B0F1FF3F834658D072
S113D3D080459DE80C0001D9BA4552D14348016803
S113D3E0D84521440160814614D1C8F30B0088B9A3
S113D3F0BB68144444F001045C603D4AD9F8003031
S113D40011688B4288BF13603A4A11688B4288BF07
S113D410136036E01868009201301BBFABEB0808BC
S113D4204144C3F800B0C9F800101BF007081CBF42
S113D430C8F10808C3445C44C4F30B0308F58058DE
S113D440A8EB03084146304600F06CF8431C04BFC7
S113D45058464FF00008D9F80030C7F808B0A0EBE0
S113D4600B004044434440F00100BA45009AC9F817
S113D4700030CBF80400C0D00F2A10D80123CBF819
S113D4800430BB685A6822F003029542A2EB0503FC
S113D49001D80F2B1BDC304600F042F816E6DAF810
S113D4A00430A2F10C0424F0070403F00103234325
S113D4B0CAF804300AEB040305220F2C5A609A6060
S113D4C09BD90AF10801304602F008FD95E7BC68D3
S113D4D045F00102254443F001036260BD606B60C6
S113D4E019E600BF70020020308CFF1F40020020AC
S113D4F0680200206C02002010B5431E0A449142C9
S113D50000D110BD11F8014B03F8014FF7E70244B5
S113D5100346934200D1704703F8011BF9E77047B3
S113D5207047000038B5064C0023054608462360C2
S113D53005F030F9431C02D1236803B12B6038BDD8
S113D540780200200CB430B5174B0C1E9BB01D683C
S113D55008DA8B232B604FF0FF301BB0BDE830405E
S113D56002B070474FF40273ADF8103014BF04F1E9
S113D570FF332346039306934FF6FF730190059000
S113D580ADF812301E9A1FAB01A92846009300F093
S113D5904BF8431CBCBF8B232B60002CDDD0019BBC
S113D5A000221A70D9E700BF0884FF1F0EB430B5FB
S113D5B09AB01DAC4FF4017254F8045BADF810201E
S113D5C001900590FDF7F0FF0B4B02900690099334
S113D5D00A48009400230D9312934FF6FF73ADF89D
S113D5E012302A46234601A9006800F0EDFF1AB064
S113D5F0BDE8304003B0704701D600000884FF1F27
S113D6000020704710B56AB10139841810F8013B45
S113D61011F8012F934203D1A04201D0002BF5D180
S113D620981A10BD104610BD2DE9F04FBFB08946C1
S113D63015461F46824602F01DFD036811931846E5
S113D640FDF7B2FFB9F80C300A901B0618D5D9F8CB
S113D6501030ABB940215046FFF72CFDC9F800004B
S113D660C9F8100048B90C23CAF800304FF0FF3352
S113D6700B930B983FB0BDE8F08F4023C9F81430EA
S113D68000232EAC219423932293099507930D93A1
S113D6900E93159314930B9312931393099D2B4696
S113D6A013F8012B12B1252A40F08380099BEE1A4E
S113D6B00DD084E84800239B33442393229B0133F9
S113D6C0072B229377DC08340B9B33440B932B7882
S113D6D0002B00F025870023691C8DF867301A465B
S113D6E04FF0FF3B0C931D460A204E1C0978099607
S113D6F0069106992039582900F21484DFE811F0C4
S113D700A60012041204AB00120412041204120440
S113D71012041204AE0065001204B700BA00120429
S113D720D700DA00DA00DA00DA00DA00DA00DA0028
S113D730DA00DA00120412041204120412041204AD
S113D74012041204120412040E012401120424010E
S113D7501204120412041204ED00120412043C0315
S113D76012041204120412041204A4031204120474
S113D7708600120412041204120412041204120485
S113D78012041204120400016B0024012401240178
S113D790F0006B0012041204F30012041E033E0393
S113D7A07203FA00120483031204A603120412047F
S113D7B0BE031D4673E721AA4946504604F08EF97C
S113D7C0002840F08E862EAC7EE701232B22099997
S113D7D08BE70F46FBE70BB18DF86720AE0640F1EF
S113D7E0A380073727F0070707F10803D7E9006785
S113D7F00893002E77F1000306DA76424FF02D03EA
S113D80067EB47078DF867300123C6E20BB18DF84B
S113D8106720A14B1593AB0640F13583073727F0FA
S113D820070707F10803D7E900670893E8070BD552
S113D83056EA070308D030238DF868309DF8183075
S113D8408DF8693045F002050223A3E2002ABED117
S113D85001232022BBE745F00105B8E73E680C969A
S113D860002E07F10401B4DA76420C960F4645F017
S113D8700405ACE709994E1C097806912A2910D0B1
S113D8804FF0000B09960699303909293FF631AF5C
S113D89000FB0B1B09990E4616F8011B069109960D
S113D8A0F1E73968099641EAE17B04378FE745F0EF
S113D8B080058CE700210C9106990C9E303900FB01
S113D8C006110C9109990E4616F8011B069106994A
S113D8D0099630390929EFD90BE745F0080576E7B1
S113D8E045F0400573E7099909786C2905D1099930
S113D8F00131099145F0200569E745F0100566E717
S113D9003B1D089300263B688DF890308DF86760C6
S113D9104FF0010B37460DF190081AE10BB18DF869
S113D920672045F0100559E715F0100F07F10403BF
S113D93003D03E680893F7175BE73E68089315F039
S113D940400F18BF36B2F6E70BB18DF867200737E2
S113D95027F0070707F1080308933B680D937B68DA
S113D9600E930E9B0D9F23F000464FF0FF324B4B5E
S113D97038463146FEF7CAFA002840F0DA854FF0FF
S113D980FF32464B38463146FEF7A2FA002840F0F3
S113D990D085129A139B0D980E99FEF78FFA10B149
S113D9A02D238DF867303E4B3E4A069925F08005BD
S113D9B04729CCBF904698464FF0030B00263746C4
S113D9C0C7E0BBF1FF3F26D0069B23F02003472B83
S113D9D004D1BBF1000F08BF4FF0010B45F4807375
S113D9E017930E9B1F1E0D9B0F93BDBF3B4603F168
S113D9F0004310930023B8BF2D231693069BA8BFA2
S113DA00109723F02007462F08D0452F42D10BF161
S113DA100106022304E04FF0060BDFE75E46032312
S113DA201FAA04921CAA03921BAA02928DE8480022
S113DA300F9A109B504601F033FC472F804602D1C9
S113DA40E80740F1838508EB0603462F079311D1BD
S113DA5098F80030302B09D1129A139B0F98109923
S113DA60FEF722FA10B9C6F101061B96079A1B9B12
S113DA701A440792129A139B0F981099FEF714FAFE
S113DA8090B930221F9B079999420FD9591C1F91B5
S113DA901A70F7E75E46BCE7D8280100FFFFEF7F66
S113DAA0C8280100CC280100079B1F931F9B472F08
S113DAB0A3EB0803079340F0FE801B9BD91C02DBF9
S113DAC09B4580F22481069B023B06931B9A9DF89A
S113DAD018108DF87410531E002B1B93B6BFC2F19F
S113DAE001032B222D22092B8DF8752040F3FF8092
S113DAF00DF183020A2693FBF6F006FB1033303354
S113DB00092802F8013C02F1FF31034600F3E880E2
S113DB10303301F8013C023A0DF176030DF1830034
S113DB2082421946C0F0DE80079A1DABCB1A012A47
S113DB30149303EB020B02DC15F0010702D00A9BDD
S113DB4000279B44169B13B12D238DF86730179D36
S113DB5000265E453346B8BF5B460F939DF8673099
S113DB6013B10F9B01330F9315F0020316931EBFDD
S113DB700F9B02330F9315F08403179318D10C9B5A
S113DB800F9A9B1A002B109312DD109B102BAB4B9A
S113DB90236000F3D981109B6360109A239B134484
S113DBA02393229B0133072B229300F3E68108344D
S113DBB09DF8673073B10DF167032360012363603F
S113DBC0239B01332393229B0133072B229300F3DE
S113DBD0DE810834169B6BB11AAB236002236360A9
S113DBE0239B02332393229B0133072B229300F3BD
S113DBF0D8810834179B802B18D10C9B0F9A9B1A41
S113DC00002B109312DD109B102B8D4B236000F31F
S113DC10D281109B6360109A239B13442393229B0D
S113DC200133072B229300F3DF810834A6EB0B06A4
S113DC30002E0FDD824B2360102E00F3DF81229B28
S113DC402398666001330644072B2396229300F33E
S113DC50EC810834EB0500F1F281239B84E8000990
S113DC605B442393229B0133072B229340F31984B3
S113DC7021AA4946504603F031FF002840F0318480
S113DC802EAC6B0700F110840B9B0C9A0F998A42FF
S113DC90ACBF9B185B180B93239B3BB121AA49464D
S113DCA0504603F01BFF002840F01B8400232293FE
S113DCB0089F2EACF2E4069B652B7FF707AF069B0B
S113DCC0662B24D11B9B002B19DDBBF1000F01D166
S113DCD0EA0702D50A9A13445B441B9F9B4631E72B
S113DCE00A4608E712F8011B03F8011B18E7302263
S113DCF013448DF876208DF877301EA914E7BBF114
S113DD00000F01D1EB0715D50A9B0133E4E71B9AF9
S113DD10079B9A4206DBEF070ED50A9B1344672242
S113DD200692DAE7079B0A99002A0B44F7DCC2F152
S113DD300102F3E70123D0E71346F0E70BB18DF8B6
S113DD40672015F0200F07F1040308D00B993A68F7
S113DD50CE1708463146C2E900011F469EE4EE068E
S113DD6003D53A680B991160F7E76806F9D53A6864
S113DD70BDF82C101180F0E745F0100515F02003D4
S113DD8022D0073727F0070707F10803D7E9006710
S113DD900893002300228DF86720BBF1FF3F00F0B9
S113DDA0DB8325F080020F9256EA070240F0D98304
S113DDB0BBF1000F00F0AA80012B76D0022B00F0FB
S113DDC0918000260027D2E33A1D15F01001089235
S113DDD002D03E680027DDE715F04003F9D03E8805
S113DDE00027D6E73B1D0893302378228DF868304E
S113DDF0144B3E681593002745F002058DF8692001
S113DE0002230692C6E73B1D0026BBF1FF3F0893A1
S113DE10D7F800808DF867600AD05A4631464046EC
S113DE20FDF7CEFB002800F08D80A0EB080BC6E5C3
S113DE304046FDF7B9FB8346C1E500BFFC2801005D
S113DE400C290100E928010045F01005A90609D5AF
S113DE50073727F0070707F10803D7E90067089396
S113DE60012397E73B1D15F0100F089301D03E687E
S113DE7002E06A06FBD53E880027F1E70BB18DF876
S113DE806720A34BC6E43B1D15F0100F089301D087
S113DE903E6802E06E06FBD53E880027C6E4434692
S113DEA066E3002F08BF0A2E05D20DF1F8083036BC
S113DEB008F8416D77E30DF1B808304639460A2277
S113DEC00023FEF7D1F8303208F8012D0023304644
S113DED039460A22FEF7C8F806460F4656EA0703F3
S113DEE0EBD160E3002600270DF1B80806F00F031C
S113DEF0159AD35C08F8013D330943EA07733A09DC
S113DF001E46174656EA0703F0D14CE33BB9EA072D
S113DF1005D50DF1F808302308F8413D43E30DF130
S113DF20B80840E30BB18DF86720069B002B00F086
S113DF30F7829DF818308DF8903000268DF86760D0
S113DF400897E5E406463AE510236360239B103303
S113DF502393229B0133072B229304DC0834109B68
S113DF60103B109311E621AA4946504603F0B6FD32
S113DF70002840F0B6822EACF1E721AA494650466B
S113DF8003F0ACFD002840F0AC822EAC10E621AAD0
S113DF904946504603F0A2FD002840F0A2822EAC70
S113DFA018E621AA4946504603F098FD002840F09F
S113DFB098822EAC1EE610236360239B10332393B8
S113DFC0229B0133072B229304DC0834109B103B63
S113DFD0109318E621AA4946504603F07FFD002815
S113DFE040F07F822EACF1E721AA4946504603F067
S113DFF075FD002840F075822EAC17E6102363608F
S113E000239B10332393229B0133072B229302DC9F
S113E0100834103E0EE621AA4946504603F05EFD40
S113E020002840F05E822EACF3E721AA4946504610
S113E03003F054FD002840F054822EAC0AE6069BFF
S113E040652B40F3A981129A139B0D980E99FDF745
S113E0502BFF002862D02F4B236001236360239B96
S113E06001332393229B0133072B229325DC0834AD
S113E0701B9B079A934202DBEE077FF502AE119BCE
S113E08023600A9B63600A9A239B13442393229B75
S113E0900133072B22931ADC0834079B5E1E002EE3
S113E0A07FF7EFAD1C4F4FF01008102E276018DCDF
S113E0B06660239B1E442396D4E521AA4946504614
S113E0C003F00CFD002840F00C822EACD0E721AA0E
S113E0D04946504603F002FD002840F002822EAC6F
S113E0E0DBE7239BC4F8048010332393229B013382
S113E0F0072B229302DC0834103ED6E721AA4946B6
S113E100504603F0EBFC002840F0EB812EACF3E723
S113E110E9280100FA2801000C2901001B9B002BAF
S113E1207ADC9B4B236001236360239B013323939D
S113E130229B0133072B229344DC08341B9B23B915
S113E140079B13B9E8077FF59CAD119B23600A9BDD
S113E15063600A9A239B13442393229B0133072B66
S113E160229339DC04F108031B9E002E19DA894F2F
S113E17076421024102E1F6038DC239A5E60164409
S113E180229A23960132072A03F10803229208DD1A
S113E19021AA4946504603F0A1FC002840F0A18181
S113E1A02EAB079A5A600799239AC3F800800A4451
S113E1B02392229A0132072A22923FF759AD03F1A2
S113E1C008045EE521AA4946504603F087FC00286E
S113E1D040F087812EACB1E721AA4946504603F0AE
S113E1E07DFC002840F07D812EABBDE7239A5C6066
S113E1F010322392229A0132072A229202DC083337
S113E200103EB7E721AA4946504603F067FC0028B0
S113E21040F067812EABF3E7079BBB42A8BF3B46A8
S113E220002B1E460BDD6360239BC4F8008033443F
S113E2302393229B0133072B22935FDC0834002EA7
S113E240ACBFBE1B3E46002E0FDDDFF848B1C4F85C
S113E25000B0102E5CDC239B66601E44229B239638
S113E2600133072B22936ADC08341B9B079A9342E1
S113E27001DBE9070DD5119B23600A9B63600A9AB1
S113E280239B13442393229B0133072B229360DCAB
S113E2900834079B079ADE1B1B9BD31A9E42A8BF18
S113E2A01E46002E0BDD239B666033442393229B82
S113E2B001334744072B2760229354DC08341B9B0B
S113E2C0079A002EA2EB0303ACBF9E1B1E46002E32
S113E2D07FF7D7AC2F4F4FF01008102E27607FF731
S113E2E0E7AE239BC4F8048010332393229B0133AD
S113E2F0072B229341DC0834103EEEE721AA49465D
S113E300504603F0EBFB002840F0EB802EAC96E780
S113E31010236360239B10332393229B0133072B29
S113E320229302DC0834103E91E721AA4946504664
S113E33003F0D4FB002840F0D4802EACF3E721AAEC
S113E3404946504603F0CAFB002840F0CA802EAC70
S113E3508BE721AA4946504603F0C0FB002840F051
S113E360C0802EAC95E721AA4946504603F0B6FB7F
S113E370002840F0B6802EACA1E721AA49465046B9
S113E38003F0ACFB002840F0AC802EACB4E700BF37
S113E390FA2801000C290100079B012B01DCEA0784
S113E3A076D501236360239BC4F800800133239353
S113E3B0229B0133072B229336DC0834119B236004
S113E3C00A9B63600A9A239B13442393229B013381
S113E3D0072B229331DC0834139B129A0D980E9963
S113E3E0FDF762FD079B5E1E00282FD108F1010393
S113E3F084E84800239B079A013B13442393229B00
S113E4000133072B22934ADD21AA4946504603F0E3
S113E41065FB002865D12EAC1DAB2360149B6360A3
S113E420149A239B13441CE421AA4946504603F042
S113E43055FB002855D12EACC0E721AA49465046C9
S113E44003F04CFB00284CD12EACC5E7002EE3DDD5
S113E450594F4FF01008102E276004DC239B666090
S113E4601E442396CBE7239BC4F8048010332393E4
S113E470229B0133072B229302DC0834103EEAE787
S113E48021AA4946504603F029FB50BB2EACF5E7C0
S113E49001236360239BC4F800800133AEE7083492
S113E4A0BAE70834FFF7EDBB0C9B0F9A9D1A002DB9
S113E4B07FF7EAAB1026414B2360102D1BDC239B16
S113E4C065601D44229B23950133072B22937FF71C
S113E4D0DBAB21AA4946504603F000FB00283FF479
S113E4E0D3ABB9F80C3013F0400F0B9B18BF4FF0AF
S113E4F0FF33FFF7BDB8239B666010332393229B41
S113E5000133072B229302DC0834103DD3E721AA00
S113E5104946504603F0E2FA0028E2D12EACF4E773
S113E520239B002BDDD021AA4946504603F0D6FA9E
S113E530D7E70D9A0E9B0D980E99FDF7E7FC00287E
S113E5403FF43FAA1E4B1F4AFFF72FBA1F9BA3EBB2
S113E55008030793FFF7B1BA56EA07020F953FF491
S113E5602BAC012B3FF49DAC022B3FF4BDAC2EAB86
S113E570F10841EA4771F80806F0070207460E461B
S113E580303256EA070103F1FF3803F8012C7FF417
S113E59086AC0F99C90706D5302A04D0302208F872
S113E5A0012CA3F102082EAB5E460F9DA3EB080BD2
S113E5B00027FFF7CEBA00BF0C290100FC28010098
S113E5C0D0280100D42801002DE9F04F1F46B1F9ED
S113E5D00C300D469904ADF52B7D804606D443F4EA
S113E5E00053AB812B6E23F400532B660023069259
S113E5F0059303939B460493069A12F8013B0692F3
S113E6000F93002B00F0C88001F054FD0F9B1844B9
S113E61090F8019019F0080919D06B68002B0FDDF0
S113E62001F048FD2B681A78104442781207E3D5AC
S113E6306A680133013A0BF1010B6A602B60ECE765
S113E6402946404603F001FB0028E9D0D4E7252BF6
S113E65040F09880069B4C464E460A22069993F851
S113E66000A00131BAF1630F069100F0DB8056D8A7
S113E670BAF1440F14D01ED8BAF12A0F00F0AC80BE
S113E68011D8BAF1000F00F00985BAF1250F79D03D
S113E69001F010FD5044437803F00303012B48D1EB
S113E6A044F0010445E0AAF13003092BF0D802FB41
S113E6B006A6303E92E0BAF14C0F00F0968022D8C4
S113E6C0BAF1450F02D0BAF1470FE1D14FF0040A75
S113E6D06B68002B40F3C780630608D401F0EAFCA2
S113E6E02B681A7810444278100700F1C4800AF1AC
S113E6F0FF3ABAF1030F00F2D080DFE81AF05001BC
S113E700A3015A022303BAF1580F7BD0BAF15B0F6D
S113E7107ED0BAF14F0FBBD144F0010422E0BAF12C
S113E7206C0F5DD014D8BAF1670F04D8BAF1650F35
S113E730CCD2AC4B63E0BAF1680F5CD0BAF1690F8C
S113E740A6D1A84B0593002303934FF0030ABFE718
S113E750BAF1700F6BD009D8BAF16E0F6AD0BAF162
S113E7606F0F95D1A04B05930823EDE7BAF1750F10
S113E77044D0BAF1780F45D0BAF1730F88D14FF075
S113E780020AA5E76B68002B0BDD069A2B6812F8CA
S113E790011C1A78914217D004980DF52B7DBDE821
S113E7A0F08F2946404603F050FA0028EDD0049B30
S113E7B0002B00F07384AB8913F0400F049B18BF47
S113E7C04FF0FF330493E7E76A680133013A6A6064
S113E7D02B600BF1010B0FE744F01004069B3DE79F
S113E7E059786C2904D10233069344F00204F5E706
S113E7F044F00104F2E744F00404EFE77A4B059394
S113E8000A23A1E744F40074774B059310239BE794
S113E810069912A802F058F844F0400406904FF00C
S113E820010A55E744F040044FF0000A50E744F46D
S113E8300874E9E7E6063FF5DFAE14F0040F3A6822
S113E84007F1040303D0A2F800B01F46D4E6E007A2
S113E85002D5C2F800B0F8E7A107FAD55846C117A7
S113E860C2E90001F1E72946404603F0EEF9002829
S113E8703FF432AF9BE76A68013A002A0BF1010BBF
S113E8806A6002DD01332B6028E72946404603F025
S113E890DCF900283FF422AF89E7002E08BF0126E7
S113E8A014F0010304F010044DD00822002110A834
S113E8B0FEF72DFE74BBD7F800A004370023002E0A
S113E8C039D0079301F0E4FB079B83423FF46FAF19
S113E8D02A6852A812F8011BC15403F101096B689C
S113E8E0013B85E80C0010AB0093024651464B46B1
S113E8F0404601F0EDFB411C3FF459AF68B90CB937
S113E900CAF80040CB44013E0CB90AF1040A4FF0A6
S113E910000904E04FF0000AD0E70230F2D16B683E
S113E920002B0EDC2946404603F08FF948B1B9F1BB
S113E930000F7FF43CAF002C7FF45EAE049B0133E8
S113E94059E64B46BBE7CCB11C466B682A68B34218
S113E9500EDA1C44F61A13442B602946404603F091
S113E96074F90028F1D0002C3FF421AFA34443E60E
S113E9709B1B344416446B602E60F7E700953346C6
S113E9800122396840463C1D03F07CF900283FF41D
S113E9900EAF8344049B0133049327462CE6002ED8
S113E9A008BF4FF0FF36E20620D500240DF14809D8
S113E9B02B681A7819F8022012B9002CD6D1EBE68C
S113E9C06A680134013A0133A6426A602B60CDD0F3
S113E9D0002AEDDC2946404603F037F90028E7D049
S113E9E0C4E700BF35180100B91A01003C6807F1FB
S113E9F004090DF1480A27462B681A781AF80220F0
S113EA00B2B16A68013A6A605A1C2A601B7807F836
S113EA10013BF31BDC420BD06B68002BECDC29467A
S113EA20404603F012F90028E6D0BC423FF4BFAEE2
S113EA303C1B3FF4B1AE00233B70049B01330493B1
S113EA404F4693E7002E08BF4FF0FF3614F001093C
S113EA5004F010046AD00822002110A8FEF757FD24
S113EA60002C3ED1D7F8009004370023079301F01F
S113EA7021FB2A6812781044427811072BD4079B93
S113EA804EB3079301F004FB079B83423FF48FAE20
S113EA902A6852A812F8011BC15403F1010A6B68D9
S113EAA0013B85E80C0010AB0093024653464946EF
S113EAB0404601F00DFB431C3FF479AEA0B9C9F800
S113EAC00000D9F8000001F0C5FA0346C8B152AEFF
S113EAD0BAF1000F0CD1002C7FF48EADC9F80040C0
S113EAE02CE70DF13C09C0E70230EAD153460EE0B1
S113EAF00AF1FF3A2A4616F80A10404603F068F86D
S113EB00E6E7D344013E14B909F1040923466A68CF
S113EB10002AABDC29464046079303F096F8079B8E
S113EB200028A3D0002B7FF442AED4E7002C36D1CA
S113EB30D7F800903C1D4F4601F0BCFA2A681378C0
S113EB40184443781B0714D46B68013B6B60531C57
S113EB502B60137807F8013BF31B19EB030F08D064
S113EB606B68002BE8DC2946404603F06EF8002869
S113EB70E2D000233B70A7EB0907BB440AE76A68AD
S113EB8009F10109013A01334E456A602B600ED048
S113EB90002A04DC2946404603F057F838B901F04E
S113EBA089FA2B681A78104442781207E7D5CB44C7
S113EBB022E5731EB3F5AE7F88BF6FF4AE704FF0DD
S113EBC000038ABF06EB000A4FF0000A40F25D160C
S113EBD044F4586407930DF5A4792A681378392B03
S113EBE02DD8382B75D2302B45D06AD82B2B78D022
S113EBF02D2B76D0E3050FD552AB994508D919F8DA
S113EC00011C2A46404602F0E3FF09F1FF36B146F3
S113EC1052AB99453FF4C0AD14F0100240F0888027
S113EC20039B059E89F8002052A94046B04714F082
S113EC30200F07F1040360D03A68106061E0582B9C
S113EC400DD006D8A3F141010529D3D803990A2987
S113EC5045E0612BCED3662BF8D9782BCAD104F4C6
S113EC60C061B1F5007FC5D124F40074102144F4CF
S113EC70A06403910BE0210509D5039919B9082172
S113EC8044F400740391600506D524F4B06489F853
S113EC90003009F101090AE024F46074BAF1000FAC
S113ECA002D00AF1FF3A0136079B013307936B68E0
S113ECB0013B002B6B6019DD01322A60013E8CD1CF
S113ECC098E70398AE4931F91010039124F438649D
S113ECD0DDE70398AA4931F9101003910829F5DCFE
S113ECE088E7210686D524F08004D0E729464046EB
S113ECF002F0ABFF0028E1D07CE7660703D53A6851
S113ED0010801F4611E014F0010295D1A10793D59C
S113ED109C4B059999424046039B52A90FD102F09E
S113ED203BFE3B68C3E900010437049B01330493B1
S113ED3052ABA9EB0309079B4B449B445CE402F0F0
S113ED40E7FCEEE7404601F095F903680C93731E67
S113ED50B3F5AE7F88BF6FF4AE7C4FF000038ABF7B
S113ED6006EB0C0E4FF0000E40F25D1644F4F06416
S113ED700A930993079308930DF5A47A2A680B92D2
S113ED8011784E2900F0A0803CD839290ED83129B9
S113ED9080F090802D2903D030296ED02B290BD1FF
S113EDA0220640F1AC8024F0800488E045293CD060
S113EDB010D8412900F0A1800C9A92F800C08C452B
S113EDC040F09D80A00540F19A80079A089224F4AF
S113EDD0207474E0462900F0AA804929ECD1B9F1E5
S113EDE0000F40F09E800798002840F08A8004F4C9
S113EDF0E06CBCF5E06F40F0868024F4F0644FF0E2
S113EE0001095CE0662900F0928027D859292ED0A8
S113EE1007D85429D0D1B9F1060F70D14FF00709A2
S113EE204DE0612969D06529C6D104F4A06CBCF514
S113EE30806F04D0600562D50798002863D0A205CE
S113EE4005D40798089ACDF828A0801A099024F4CC
S113EE50F064002244F4C074079230E06E2933D089
S113EE6001D86929BAE77429D5D07929A4D1B9F18F
S113EE70070F44D14FF0080921E0E0051AD507999E
S113EE80013124F080040791BEF1000F02D00EF18D
S113EE90FF3E013669680139002906F1FF360BF19E
S113EEA0010B69604DDD0B9801302860002E7FF462
S113EEB065AF24E013EB090F21D124F4C0748AF860
S113EEC000100AF1010AE5E753B9079850B904F4B0
S113EED0E06CBCF5E06F05D124F4F0640123EEE7A7
S113EEE0022B2AD0B9F1010F02D0B9F1040F06D1D7
S113EEF009F101095FFA89F9E1E7012B1FD0079AAB
S113EF000AB124F48074013B012B27D852ACA245EA
S113EF107FF642AC2A461AF8011D404602F058FE1C
S113EF20F5E7B9F1030FE3D0B9F1050FDFE7B9F164
S113EF30020FE4D14FF00309C1E70323BFE7022323
S113EF40BDE7294640460D93CDF82CE002F07DFE46
S113EF50DDF82CE00D9B0028A8D0D0E709F1FF33A1
S113EF60062B1BD8B9F1020F0ED852ACA2457FF67E
S113EF7013AC2A461AF8011D404602F029FEF5E7B3
S113EF8022290100B91A0100A9F103095FFA89F9DC
S113EF90AAEB0906B24510D1ABEB090BE2052DD55E
S113EFA0630511D552ACA2457FF6F6AB2A461AF892
S113EFB0011D404602F00CFEF5E72A461AF8011D31
S113EFC0404602F005FEE5E71AF8011C65290AF13E
S113EFD0FF360BF1FF390BD0452909D02A464046AC
S113EFE002F0F6FD1AF8021CAAF10206ABF10209BE
S113EFF02A46404602F0ECFDCB46B24614F010021D
S113F0007FF4FAAA04F4C063B3F5806F8AF8002091
S113F01019D1089A079B9B1A5A420BBB002252A98A
S113F020404602F0C1FA14F0010F81468A4607F106
S113F030040620D03B68C3E9009A049B013304937F
S113F0403746FFF7D9BA099B002BE7D00A990A2360
S113F0500131404602F0EEFB099BDDF828A0C21AFC
S113F0600DF29B239A4528BF0DF29A2A0D4950466A
S113F07001F05EFCD2E714F00204DBD102460B4639
S113F0803F68FCF743FF20B1204601F04DFC386097
S113F090D3E748465146FCF797FFF8E74FF0FF33B4
S113F0A0FFF790BB1C290100024B13B1024802F088
S113F0B068BE70470000000015FE00002DE9F74F00
S113F0C02E4B1B68009380460F4603F5A47A009BE1
S113F0D0D3F8484156464FF0010B14B903B0BDE8CC
S113F0E0F08F656805F1FF39013504EB8505B9F149
S113F0F0000F0EDA224B002BF0D062682368002A3E
S113F10039D1002B37D020463360FDF7CBFF34686C
S113F110E3E73FB1D5F80021974203D009F1FF3965
S113F120043DE4E761682A680139894516BF002374
S113F130C4F804902B60002AF0D0D4F888016368E6
S113F14001930BFA09F1014208D0D4F88C01014271
S113F1500DD1D5F880104046904700E09047626892
S113F160019B9A42B3D132689442D7D0AFE7D5F825
S113F17080009047F3E726461C46AEE7C42801000A
S113F180A5D000002DE9F74F03690C699C42804625
S113F19000F38280013C01F114074FEA840C00F172
S113F1A0140657F8245056F8240006EB0C030135D6
S113F1B007EB0C090193B0FBF5F595B34FF0000A8A
S113F1C03846B646D34650F8042B93B205FB03A346
S113F1D04FEA134A9BB2ABEB0303120CBEF800B028
S113F1E005FB02A213FA8BF34FEA124A1FFA82FBC1
S113F1F0DEF80020CBEB124202EB23429BB243EA3F
S113F200024381454FEA224B4EF8043BDBD256F8C9
S113F2100C3033B9019B043B9E421A4630D3C8F8E4
S113F2201040404601F0AFF9002825DB0135304697
S113F2304FF0000C57F8042BD0F800E093B2ACEB7D
S113F2400303120C13FA8EF3C2EB1E4202EB2342A9
S113F2509BB243EA0243B9454FEA224C40F8043BCF
S113F260E8D256F8242006EB84032AB9043B9E42D4
S113F2701A460BD3C8F81040284603B0BDE8F08FF7
S113F2801268043B002ACAD1013CC5E71268043B5A
S113F290002AEFD1013CEAE70020EEE7000000007D
S113F2A02DE9F04F016C95B00446219DCDE9022370
S113F2B041B1426C4A60012393408B6000F06BFFC4
S113F2C000232364039B002BBFBF01232B60039BFC
S113F2D023F00043B2BF039300232B60DDF80C90AE
S113F2E0AF4B33EA090313D1209A42F20F73136030
S113F2F0029B23B9C9F31300002800F07485229BF4
S113F300A84813B1C31C229A136015B0BDE8F08F4E
S113F310DDE902670022002330463946FCF7C4FDCC
S113F320804650B1209A01231360229B002B00F0E9
S113F33057859D4818600138E7E712AB019313AB7A
S113F340009332463B46204601F00CFAC9F30A55B5
S113F3508246002D7CD0C7F3130343F07F5130461F
S113F36041F44011A5F2FF35CDF8408000228F4BC7
S113F370FCF77AF984A3D3E90023FCF72DFB84A3DB
S113F380D3E90023FCF772F9064628460F46FCF73A
S113F390B9FA81A3D3E90023FCF71EFB02460B460E
S113F3A030463946FCF762F906460F46FCF7C4FDC1
S113F3B000228346002330463946FCF77FFD58B1CE
S113F3C05846FCF79FFA02460B4630463946FCF78E
S113F3D06BFD08B90BF1FF3BBBF1160F57D874490D
S113F3E001EBCB01DDE90223D1E90001FCF784FD47
S113F3F000284ED00BF1FF3B00230D93129B5D1BA5
S113F4006B1E079343BF0023C5F1010807934FF018
S113F4100008BBF1000F3EDB079BCDF830B05B4426
S113F4200793002308931E9B092B00F29380052B5E
S113F430C4BF043B1E931E9BA3F10203CCBF002553
S113F4400125032B00F29280DFE803F080822D7403
S113F450139B129D1D4405F23243202B11DD029AA9
S113F46005F21240C3F1400322FA00F009FA03F353
S113F4701843FCF737FA0123A1F1F871013D109309
S113F48074E7C3F12000029B03FA00F0F1E70123C3
S113F490B3E70D90B2E7CBF1000308930023A8EB88
S113F4A00B080C93BFE7012309931F9B002B60DD1E
S113F4B00493994600226264042202F114019942E1
S113F4C0616C5BD9204600F041FEB9F10E0F069045
S113F4D0206400F2ED80002D00F0EA80DDE90223D3
S113F4E0BBF1000FCDE90E2376DD314A0BF00F039B
S113F4F002EBC303D3E900234FEA2B16F006CDE950
S113F5000A2359D52B4BDDE90E01D3E90823FCF777
S113F5108DFBCDE9020106F00F060325254F002ED1
S113F5204CD1DDE90A23DDE90201FCF77FFBCDE9DB
S113F53002016BE0012309931F9B5B4403F1010962
S113F54004934B46012BB8BF0123B3E70023ABE779
S113F5500023F0E7012500231E9309954FF0FF33A4
S113F56004939946002212231F92A3E701230993CF
S113F570F4E70123049399461A46F5E701316164DF
S113F58052009AE7AFF3008061436F63A787D23FCD
S113F590B3C8608B288AC63FFB799F501344D33F7E
S113F5A00000F07F4D290100FB2801000000F83F16
S113F5B088290100602901000225AFE7F10708D579
S113F5C0DDE90A01D7E90023FCF706FACDE90A01CF
S113F5D0013576100837A2E700F0A580CBF10006CC
S113F5E0A34BA44F06F00F0203EBC203D3E900239D
S113F5F0DDE90E01FCF7F0F9CDE902013611002333
S113F6000225002E40F08480002B90D10D9B002B0E
S113F61000F08B80DDE90223CDE90A23DDE90A014C
S113F6200022954BFCF74AFC00287ED0B9F1000F6C
S113F6307BD0049B002B37DD0022904BDDE90A01CF
S113F640FCF7CAF9CDE90201049E0BF1FF3701353D
S113F6502846FCF757F9DDE90223FCF7BDF9884B8E
S113F6600022FCF703F8CDE90A010B9BA3F15075C6
S113F6700B95002E5CD10022824BDDE90201FBF7E1
S113F680F3FF0A9A2B46CDE90201FCF735FC00286A
S113F69040F0F8820A9A05F10043DDE90201FCF723
S113F6A00DFC002840F0EC82DDE90E23CDE90223B5
S113F6B0139B002BC0F25181BBF10E0F00F34D815F
S113F6C06B4B03EBCB03D3E90023CDE904231F9B4E
S113F6D0002B80F2DB80B9F1000F00F3D78040F0FB
S113F6E0CE820022674BDDE90401FCF775F9DDE900
S113F6F00223FCF7F7FB4E464F46002840F0A58254
S113F700069B069A5D1C312313700BF1010BA0E2DA
S113F710F20705D5D7E90023FCF75EF9013501238B
S113F720761008376DE7022570E75F464E468FE78F
S113F730069A4F4B32441192099A711E002A48D0FE
S113F74003EBC103D3E9002300204F49FCF76EFA11
S113F750DDE90A23FBF788FFCDE90A01069DDDE90F
S113F7600201FCF7E9FB0646FCF7CCF802460B461F
S113F770DDE90201FBF778FF303605F8016BDDE9BE
S113F7800A23CDE90201FCF799FB002865D1DDE9E4
S113F790022300203849FBF767FFDDE90A23FCF761
S113F7A08DFB002840F0B980119B9D423FF47CAF53
S113F7B00022324BDDE90A01FCF70EF90022CDE903
S113F7C00A012E4BDDE90201FCF706F9CDE902013D
S113F7D0C5E703EBC101D1E90001DDE90A23FCF728
S113F7E0FBF8CDE90A01069DDDE90201FCF7A4FB63
S113F7F00646FCF787F8303602460B46DDE902017F
S113F800FBF732FF05F8016B119BAB42CDE9020116
S113F8104FF0000225D11C4BDDE90A01FBF726FF5E
S113F82002460B46DDE90201FCF766FB002874D1B1
S113F830DDE90A2300201449FBF716FF02460B46B4
S113F840DDE90201FCF73AFB00283FF42DAF15F87F
S113F850013C302B05F1FF3201D0BB464DE015468B
S113F860F5E7064BFCF7B8F8CDE90201BCE700BFA9
S113F87088290100602901000000F03F00002440B5
S113F88000001C40000014400000E03FDDE9026776
S113F890069DDDE9042330463946FCF7C7F9FCF739
S113F8A04BFB8046FCF72EF8DDE90423FCF794F8C3
S113F8B002460B463046394608F13006FBF7D4FEC3
S113F8C005F8016B069EAE1BB14502460B4637D1C7
S113F8D0FBF7CCFE06460F4602460B46DDE9040163
S113F8E0FCF7ECFAC0B932463B46DDE90401FCF70B
S113F8F0DBFA10B118F0010F0ED15146204600F08A
S113F9004AFC0023209A2B700BF101031360229B05
S113F91003B11D600698F8E45F4615F8012C392AF6
S113F92005F1FF3306D1069A9A4207D130231370AA
S113F930013713461A7801321A708EE71D46ECE738
S113F9400022B54BFCF748F80022002306460F4678
S113F950FCF7AAFA00289CD0CFE7099A002A00F005
S113F96029811E9A012A00F30E81109A002A00F0C0
S113F970068103F23343089E4546079A01211A443F
S113F98020469844079200F0D6FC0746002D0BDD74
S113F990079B002B08DDAB42079AA8BF2B46A8EBB8
S113F9A00308ED1AD31A0793089BFBB1099B002B9C
S113F9B000F00481002E11DD39463246204600F065
S113F9C051FD524601460746204600F0BDFC514613
S113F9D00A90204600F0DFFB0A9B9A46089B9A1B7C
S113F9E004D05146204600F03DFD824601212046C8
S113F9F000F0A1FC0C9B002B064640F3E1801A4664
S113FA000146204600F02EFD1E9B012B064640F3C6
S113FA10DA8000230893336906EB8303186900F046
S113FA203CFCC0F12000079B184410F01F0000F0BC
S113FA30F080C0F12003042B40F3E280079BC0F167
S113FA401C008044054403440793B8F1000F05DD0E
S113FA5051464246204600F045FD8246079B002B56
S113FA6005DD31461A46204600F03CFD06460D9B56
S113FA70002B00F0D3803146504600F084FD00286E
S113FA8080F2CC80002351460A22204600F08CFBF1
S113FA90099B0BF1FF3B8246002B00F0AD81002354
S113FAA039460A22204600F07FFB049B002B0746C0
S113FAB003DC1E9B022B00F3B980002D05DD3946C3
S113FAC02A46204600F00EFD0746089B002B00F056
S113FAD011817968204600F039FB3A690232054603
S113FAE0920007F10C010C30FDF706FD01222946B6
S113FAF0204600F0F7FC029BDDF81880079703F01E
S113FB0001030746089331465046FFF73BFB07992C
S113FB10054600F13009504600F035FD3A460290A2
S113FB203146204600F049FDC3680246002B40F0F0
S113FB30E38001460990504600F025FD099A0346EA
S113FB4011462046099300F026FB099B002B40F048
S113FB50D5801E9A002A40F0D180089A002A40F0ED
S113FB60CD80B9F1390F00F0E980029B002B01DD53
S113FB7005F1310908F1010588F800906BE0129B4A
S113FB80C3F13603F7E6089B09F1FF36B342BFBF62
S113FB90089B0896F21A0C9BB7BF9B189E1B0C93EC
S113FBA00026B9F1000FB9BFA8EB090500234546AB
S113FBB04B46E2E6089E099F4546E7E6089A10E7A9
S113FBC01E9B012B18DC029BB3B9039BC3F31303E5
S113FBD0A3B9039B23F000431B0D1B052BB1079B0B
S113FBE00133079308F10108012308930C9B002BB0
S113FBF07FF411AF012016E70023F6E7029BF4E738
S113FC003FF423AF079A1C331A4498441D44134607
S113FC101AE70346F6E700BF00002440B9F1000FDD
S113FC2033DC1E9B022B30DDCDF81090049B63B9AE
S113FC3031460522204600F0B7FA014606465046F2
S113FC4000F0A1FC00283FF75BAD1F9B069D6FEA07
S113FC50030B002307933146204600F09CFA002F43
S113FC603FF44BAE079B2BB1BB4203D01946204651
S113FC7000F091FA3946204600F08DFA3DE6002660
S113FC803746E2E7BB4637463AE5099BCDF8109084
S113FC90002B7FF412AF069D31465046FFF772FAEF
S113FCA000F1300905F8019B069B049AEB1A9A426D
S113FCB000F38380069B012AACBF9B18013398464E
S113FCC00023079351460122204600F00BFC3146E5
S113FCD0824600F058FC002835DC02D119F0010FEF
S113FCE031D1454615F8013C302B05F1FF32B2D134
S113FCF01546F7E73846FEE6012321E7029A002A73
S113FD0004DB29D11E9A3ABB089A2ABB002B7FF741
S113FD1031AF51460122204600F0E4FB31468246D1
S113FD2000F031FC002805DC7FF424AF19F0010F4A
S113FD303FF420AFB9F1390F7FF41AAF392388F8B3
S113FD40003008F10108454615F8013C392B05F14E
S113FD50FF323AD001333FE0002B08F1010505DD05
S113FD60B9F1390FEAD009F1010905E7069B049AB4
S113FD7005F8019CEB1A9342A846A3D051460023F0
S113FD800A22204600F010FA079B0799BB428246DC
S113FD904FF000034FF00A02204604D100F004FAA9
S113FDA007900746AFE600F0FFF9002307900A2208
S113FDB03946204600F0F8F9F3E7514600230A22B9
S113FDC0204600F0F1F9824666E7069B934205D18E
S113FDD0069A0BF1010B312313703CE71546B3E788
S113FDE00A48FFF792BA229B0948002B3FF48DAAD8
S113FDF000F10803FFF787BA049B002B3FF74BAFD2
S113FE001E9B022B7FF747AF10E700BFFA280100C3
S113FE104429010038B5074D074C641BA4101CB9D4
S113FE20BDE8384002F0CCBE013C55F82430984778
S113FE30F5E700BFDC2B0100E02B0100F8B5244FEF
S113FE400C460646FDF76BFBBB685D68C4F57E6433
S113FE5025F003050F342C4424F47F6424F00F04AC
S113FE60A4F58054B4F5805F04DA3046FDF758FBFE
S113FE700020F8BD00213046FDF754FBBB682B443D
S113FE809842F2D161423046FDF74CFB013010D16B
S113FE9000213046FDF746FBBA68831A0F2BE4DDD8
S113FEA00C490968401A0C4943F001030860536087
S113FEB0DBE7BB68084A2D1B45F001055D6013684C
S113FEC030461C1B1460FDF72BFB0120F8BD00BF5E
S113FED02888FF1F308CFF1F400200202DE9F041CD
S113FEE004468846002900F0AB80FDF718FB58F85B
S113FEF0042C544D22F00100A8F108031F18A9682E
S113FF007E688F4226F0030602F001021BD13044C2
S113FF103AB958F8082C9B1A10449968DA68CA60F0
S113FF20916040F001025A60AB60474B1B689842F5
S113FF3004D3464B20461968FFF780FF2046BDE8EE
S113FF40F041FDF7EDBA7E60002A39D158F8081C5B
S113FF505B1A0844996805F1080C614532D0D3F85E
S113FF600CC0C1F80CC0CCF80810B9194968C9070D
S113FF700AD43044B9683ABB354EB14224D16B61DE
S113FF802B610122D960996040F001015960185039
S113FF90002AD3D1B0F5007F1AD2C0088110012203
S113FFA08A40696801300A436A6005EBC00255F86B
S113FFB030109960083ADA6045F83030CB60BDE71C
S113FFC00022D2E70122D0E7FE68CE60B160DBE711
S113FFD0420A042A13D882093832511C05EBC2069E
S113FFE055F831108E4224D10120921000FA02F209
S113FFF0686802436A60DE609960B360DEE7142AD1
S21401000001D85B32E9E7542A02D8020B6E32E4E7E4
S214010010B2F5AA7F02D8C20B7732DEE740F254511E
S2140100208A429ABF820C7C327E22D6E789688E424B
S21401003004D04A6822F003029042F7D3CE68DAE78A
S214010040BDE8F0812888FF1F348CFF1F7002002056
S2140100503088FF1FFF2810B5044606D800F02AF89E
S2140100602044407800F0080010BD002010BDF0309C
S21401007070470000044B1B68586B044B002808BFF0
S2140100801846F030704700BF0884FF1F388CFF1FEA
S214010090044B054A1B685B6B002B08BF134693F89D
S2140100A0280170470884FF1F388CFF1FD0F8EC002A
S2140100B070470000044B054A1B685B6B002B08BFAA
S2140100C01346D3F8EC0070470884FF1F388CFF1FD7
S2140100D0F7B5089D114C06461746A2B92368104A83
S2140100E05B6B0095002B08BF13460E4AD3F8E4401D
S2140100F039460123A047431C01BF00232B608A23F6
S214010100336003B0F0BD2468054F646B0095002C86
S21401011008BF3C46D4F8E440ECE700BF0884FF1F64
S214010120388CFF1F5A29010082B001B901A942B1DA
S2140101304BB113780B601278101C18BF012002B067
S21401014070471046FBE76FF00100F8E7C36C70B527
S21401015005460C467BB1EB6C53F82400A0B901218F
S21401016001FA04F6721D92002846FCF731FF48B1E9
S214010170446086600BE021220421FCF729FFE86435
S2140101800028E8D1002070BD026843F8242000232F
S2140101900361C36070BD31B1C36C4A6853F8220075
S2140101A0086043F8221070472DE9F0410D691F469B
S2140101B006460C4601F1140C0023DCF8000081B25F
S2140101C002FB01710F0C000C02FB007089B20133B7
S2140101D001EB00419D424FEA10474CF8041BECDC52
S2140101E0D7B1A3689D4212DB616830460131FFF743
S2140101F0ADFF2269023204F10C01804692000C30F8
S214010200FDF77AF921463046FFF7C5FF444604EB71
S214010210850301355F6125612046BDE8F0812DE942
S214010220F8430C4615461F4609220833064693FB3B
S214010230F2F3002101229A4220DB3046FFF786FFC7
S214010240089B4361092D4FF00103036119DD04F199
S2140102500909C8462C4418F8013B0146303B0A22DE
S2140102603046FFF7A1FFA045F5D1A5F108044C449F
S2140102702D1B6319BB4207DBBDE8F8835200013131
S214010280D9E70A340925F3E714F8013B0146303B68
S2140102900A223046FFF788FFEBE7020C12040346FA
S2140102A0B2B90304102013F07F4F04BF1B020830BD
S2140102B013F0704F04BF1B01043013F0404F04BF0E
S2140102C09B000230002B06DB5B0003D50130704734
S2140102D00020E8E720207047036813F00702014674
S2140102E00BD0DA0723D4980749BF5B089B08012087
S2140102F00B605CBF0B600220704798B2A8B91B0C5C
S214010300102013F0FF0F04BF1B0A08301A0704BFA2
S2140103101B0904309A0704BF9B080230DA0702D48F
S2140103205B0806D001300B6070471046E9E70020F5
S21401033070472020704710B50C460121FFF706FFD5
S21401034001224461026110BD2DE9F74F14460A6986
S21401035023699A42B8BF0B468946BCBFA1461C46D4
S214010360D9F81070D4F810A0D9F80830D9F80410CC
S21401037007EB0A069E42C8BF0131FFF7E7FE00F110
S214010380140505EB86082B460022434516D304F1D7
S214010390140209F1140102EB8A0301EB87070193AA
S2140103A0019C944213460CD8002E03DD58F8043DF8
S2140103B0002B54D0066103B0BDE8F08F43F8042B40
S2140103C0E3E7B3F800A00432BAF1000F20D0AC4640
S2140103D089464FF0000E59F8044BBCF800B0A3B2A2
S2140103E00AFB03B34FEA144BDCF8004073444FEAB0
S2140103F0144E0AFB0BE404EB13449BB243EA04439A
S2140104004F454FEA144E4CF8043BE4D8CCF800E0D4
S21401041032F8029CB9F1000F1FD02B68AC468E460D
S2140104204FF0000ABEF80040BCF802B009FB04B465
S214010430A2449BB243EA0A434CF8043B5EF8043BF1
S214010440BCF800401B0C09FB034303EB1A4377453A
S2140104504FEA134AE6D8CCF800300435A0E7013E4F
S214010460A2E700002DE9F843154612F003020646FE
S2140104700F4607D0013A1A4C002354F82220FFF702
S21401048093FE0746AD1027D0B46C44B940F27121F3
S2140104903046FFF750FF0023B064044603604FF078
S2140104A00008EB070AD5394622463046FFF74CFFCF
S2140104B0394681463046FFF76EFE4F466D100BD02B
S2140104C0206838B9224621463046FFF73DFF2060B6
S2140104D0C0F800800446E4E73846BDE8F88300BF6C
S2140104E0502A01002DE9F0470C464FEA621A2369AB
S2140104F049680AEB0309A3680746164609F1010590
S214010500AB4231DB3846FFF721FE0022804600F180
S2140105101403114652452ADB20692AEAEA7A04F1D5
S214010520140116F01F0203EB8A0301EB800C22D0A4
S214010530C2F1200E00200E689640304343F8040BAB
S21401054051F8040B8C4520FA0EF0F4D8186008B167
S21401055009F10205013D3846C8F810502146FFF75B
S2140105601AFE4046BDE8F08701315B00C8E743F854
S21401057022100132CEE7043B51F8042B43F8042F36
S2140105808C45F9D8E6E703690A699B1A30B50CD1A0
S2140105909200143014318418114454F8045D51F853
S2140105A0042D954203D005D30123184630BDA04241
S2140105B0F3D3FAE74FF0FF33F7E72DE9F0470D469F
S2140105C00746114628461446FFF7DDFF061E08D1EA
S2140105D031463846FFF7BAFD012303614661BDE89F
S2140105E0F087A4BF23462C4638466168A6BF1D4641
S2140105F000260126FFF7AAFD2B69C660266905F1CC
S214010600140904F1140202EB860709EB830800F1D2
S21401061014054FF0000E52F804AB59F8044B1EFABD
S2140106208AF1A3B2C91A230CC3EB1A4303EB214385
S21401063089B24FEA234EC84541EA0343944645F83A
S214010640043BE8D8BC4505D355F8043D8BB106619B
S214010650BDE8F0875CF8041B1EFA81F31A1402EB5E
S21401066011429BB243EA02434FEA224E45F8043B4D
S214010670E8E7013EE8E70000104B0B40A3F150739A
S214010680002B02DD0020194670475B421B15132B19
S2140106904FF000004FF0000104DC4FF4002242FA54
S2140106A003F17047143B1E2B4FF00102DABFC3F172
S2140106B01F0302FA03F31346184670470000F07F43
S2140106C02DE9F843076900F1140909EB8707A7F13B
S2140106D0040857F8046C3046FFF7DFFDC0F120032D
S2140106E00A280B601E4917DCC0F10B0CC14526FA1F
S2140106F00CF338BF57F8082C43EA010528BF00223F
S21401070000F1150306FA03F322FA0CF243EA020497
S21401071020462946BDE8F883C1453ABFA7F1080837
S21401072057F8082C0022B0F10B0315D09E40C3F1F8
S214010730200746F07F5622FA07F1C84546F44016D0
S21401074046EA01058CBF58F8041C002102FA03F0A2
S214010750F94040EA0104DBE746EA01051446D7E71B
S2140107600000F03F2DE9F34101211C469046089E0A
S214010770099DFFF7EBFCC4F31302C4F30A540746C2
S21401078034BB0192B8F1000F27D002A840F8088DBB
S214010790FFF7A2FD0099F0B1019AC0F1200302FA19
S2140107A003F30B43C2407B610192019BBB61002BAB
S2140107B014BF022101213961C4B1A4F233440444B7
S2140107C03460C0F135002860384602B0BDE8F081DB
S2140107D042F48012D5E77961E7E701A8FFF77CFDCF
S2140107E0019B7B61012139612030E5E707EB81033D
S2140107F0A0F2324030601869FFF74FFDC0EB4110A0
S214010800E1E72DE97343884669468146FFF758FFBD
S2140108100D46044601A94046FFF752FFD9F81030AD
S214010820D8F81020009E9A1A019BF31A03EB421384
S214010830002BD6BFC3EB033305EB035501EB035186
S21401084002460B4620462946FBF7F0F902B0BDE802
S2140108507083013910B549111469013102F114038D
S21401086000EB810103EB8404A342024603D3002379
S2140108708A4205D310BD53F8042B40F8042BF3E746
S21401088042F8043BF4E700F1140200694B11984268
S21401089010B511DB0ADD11F01F0107D052F8234015
S2140108A024FA01F000FA01F18C420BD102EB83032A
S2140108B0934203D8002010BD0346F7E753F8041D02
S2140108C00029F5D0012010BD70B50B785E2B13BF43
S2140108D04A1C8A1C4B78002108BF0121441E00F1E6
S2140108E0FF0504F8011FA542FBD113B9013A1046D2
S2140108F070BD81F00104C45411460D782D2D01F10F
S214010900010206D05D2DF2D00DB90A46EFE72B465F
S214010910F1E74E785D2EFAD0B342F8DC02310133AE
S2140109209E42C454FBDCE8E7004870470000C07FE5
S2140109300EB400B59AB04FF402711BABADF81010AF
S214010940019005906FF000410A48039106914FF619
S214010950FF7153F8042BADF812100068009301A93B
S214010960FCF762FE019B00221A701AB05DF804EBD8
S21401097003B070470884FF1F2DE9F0410F469046EB
S214010980FFF77AFE04460D46B8F1000F11D0C7F303
S2140109900A53C3F16B03002B0BDD1B0503F17F55D7
S2140109A0002405F5401522462B46FBF715F80446AC
S2140109B00D4620462946BDE8F081000000000000F3
S2140109C02DE9F04F99469FB00023804648460C46D5
S2140109D015921A93FFF74BFB07460068FAF7E4FDFA
S2140109E04FF0000A05464FF0000B1994199B1A7830
S2140109F00D2A33D8092A37D2002A3FD0002309937B
S214010A00199E3378302B40F001817378582B01D032
S214010A10782B6BD1099B01931AAB0093CDF8089004
S214010A201BABAA4A19A9404601F0FBF910F00704CE
S214010A30054605D0062C2BD10136002319960993BD
S214010A40159B002B40F09985099BE3B152460BF1AB
S214010A500043104619461FB0BDE8F08F2B2A06D07A
S214010A602D2A13D0202AC9D101331993BEE70022BB
S214010A7009925A1C19925B78002BC1D1159B1994C7
S214010A80002B40F0788552465B46E2E70122EFE70D
S214010A901A9A3AB135211CA8FFF7DBFE1A9940468F
S214010AA0FFF779FB013C042C08D8DFE804F00C03BF
S214010AB0171A0C00DDF870A0DDF874B02907BFD551
S214010AC04BF0004BBCE71D9B1B9ADDF870A023F48E
S214010AD0801302F2334243EA025BEFE7DFF8F8B134
S214010AE0ECE76FF0004B4FF0FF3AE7E7199B5A1C13
S214010AF019925B78302BF9D0002BA1D001230893F3
S214010B00199B0A9300230593069304930A221998C6
S214010B100678A6F13003D9B2092979D92A46396867
S214010B20FCF770FD002800F085800020049D334608
S214010B3002460146652B02D0452B40F0EF8025B9D1
S214010B4010B9089B002B99D00025199C631C19939A
S214010B5063782B2B00F0CF802D2B00F0D28000265F
S214010B600796A3F13006092E00F2D780302B00F04D
S214010B70CA80A3F13106082E00F2D080A3F1300C12
S214010B80199B4FF00A0E1F46199B5E1C19965B783F
S214010B90A3F13009B9F1090F40F2BA80F61B082E0D
S214010BA044F61F6902DCE145A8BFE146079E0EB187
S214010BB0C9F10009002D40F0D78000287FF440AF2E
S214010BC0089A002A7FF43CAF00297FF457AF4E2BDA
S214010BD000F0AD8000F3A580492B7FF44FAF3C4970
S214010BE019A801F04EFB00283FF448AF199B39497C
S214010BF0013B19A8199301F044FB10B9199B013365
S214010C001993DFF8D4B04FF0000A19E7002376E70E
S214010C1004990829D5BF0699059902FB013302FB01
S214010C200133D4BF06930593049B0130013304932B
S214010C3019906CE7199B5A191992049A5B5D002A60
S214010C4054D11046302B2AD0A3F13102082A00F2E3
S214010C509984199A0A92024600200546303B00F113
S214010C60010111D00A4400EB050E29460A267145FA
S214010C701BD12844082800F101052FDC06980A211B
S214010C8001FB003306930021199B581C19905B78D1
S214010C900846A3F130010929E0D901214AE7199B49
S214010CA05A1C199201305B78CCE7013101F1FF3C07
S214010CB0BCF1080F03DC069F77430697D7E7102998
S214010CC0DEBF059F77430597D1E700BF5C2A010089
S214010CD0CD280100472901000000F07F102DDFBF5D
S214010CE005980A2101FB00330593CCE70246049DD3
S214010CF0CFE7012124E700230793A31C1993A378C8
S214010D002FE70123F8E7199B5E1C19965B782DE700
S214010D100EFB0C3CACF1300C36E719944FF0000991
S214010D2048E7692B3FF45BAF6E2B7FF4A7AE8C4987
S214010D3019A801F0A6FA00283FF4A0AE199B1B786B
S214010D40282B0ED11CAA874919A801F0ADFA05284F
S214010D5007D11D9BDDF870A043F0FF4B4BF4E00B71
S214010D606EE6DFF810B24EE7049B0698002B08BF2C
S214010D702B46102D2C46A9EB0209A8BF102404937C
S214010D80FAF7B0FD092C82468B4613DD764B03EB52
S214010D90C40353E91223FAF71FFE064605980F46C9
S214010DA0FAF7A0FD02460B4630463946FAF75EFCD6
S214010DB082468B460F2D36DCB9F1000F3FF440AE6C
S214010DC024DDB9F1160F0BDC674D05EBC909D9E92E
S214010DD0000152465B46FAF7FFFD82468B462FE638
S214010DE0C5F1250399451EDC5F4CC5F10F0504EBE3
S214010DF0C501A9EB050552465B46D1E9000104EBA6
S214010E00C504FAF7E9FDD4E90023E4E719F1160F62
S214010E1009DB554DA5EBC909D9E9002350465946CA
S214010E20FAF704FFD9E72C1B4C44002C73DD14F0B1
S214010E300F030AD04C4901EBC30152465B46D1E988
S214010E400001FAF7C9FD82468B4634F00F0454D0F0
S214010E50B4F59A7F27DD4FF00009CDF81090CDF854
S214010E601C90CDF818902223DFF80CB1C8F800309A
S214010E704FF0000A079B002B3FF4E2AD1A9940465B
S214010E80FFF789F906994046FFF785F90499404628
S214010E90FFF781F907994046FFF77DF94946404635
S214010EA0FFF779F9CCE50023304E24115046594618
S214010EB01F46012C24DC0BB182468B462B4BABF133
S214010EC0547B03EBC70752465B46D7E90001FAF7A6
S214010ED083FD21F000438B460A461B0D24491B0562
S214010EE08B428246B7D8A1F580118B4286BFDFF8C8
S214010EF08CB04FF0FF3A02F1547B0023059370E06B
S214010F00E20704D5D6E90023FAF766FD0123013787
S214010F1064100836CDE7F0D0644214F00F020AD010
S214010F20114B03EBC20350465946D3E90023FAF7A7
S214010F307DFE82468B462411DFD01F2C20DD4FF02C
S214010F400009CDF81090CDF81C90CDF8189022230A
S214010F504FF0000A4FF0000BC8F800308AE700BFD8
S214010F60D5280100702A01008829010060290100A6
S214010F700000A07C0000F8FF0000F07FFFFFEF7F7D
S214010F8014F0100318BF6A239F4E05935046594626
S214010F900023002C00F306810BB182468B46059B8D
