S02300005333324B3134345F50726F6A6563745F48656C6C6F436C6F636B732E737265637D
S113F0000070002011F4000051F4000051F40000DD
S113F01051F4000051F4000051F40000000000001D
S113F02000000000000000000000000051F4000097
S113F03051F400000000000051F4000051F40000FD
S113F04051F4000051F4000051F4000051F40000A8
S113F05051F4000051F4000051F4000051F4000098
S113F06051F4000051F4000051F4000051F4000088
S113F07051F4000051F4000051F4000051F4000078
S113F3F051F4000051F4000051F40000FFFFFFFF3E
S113F400FFFFFFFFFFFFFFFFFFFFFFFFFE7FFFFF89
S113F41072B60B490A4A0A4B094C094D084E084F6B
S113F420B846B946BA46BB46BC4606488546064871
S113F43080470648804762B600F05EF8FEE70000A9
S113F4400000000000700020D9F4000055F4000012
S113F450FFF7FEBF08B51449144B8B4207D0144A7A
S113F460920804D01846920000F03EF90346114A6F
S113F47011491360114A914203D0521A104800F006
S113F48033F91049104A914203D0521A0F4800F040
S113F4902BF90F480F4A904205D0121A0021BDE8FB
S113F4A0084000F02CB908BD00F000000080FF1FE8
S113F4B00004000008ED00E084F7000084F7000079
S113F4C00084FF1F84F7000084F700000084FF1FFE
S113F4D00000002000000020054B064A5A6042F25A
S113F4E020114FF6FF72586819609A60704700BF88
S113F4F00020054020C528D908B500F03DF8194A78
S113F50019491A4C1A4B1B4D4FF08040C2F8300178
S113F510486940F400404861E06B4FF0C06640F435
S113F5208070E063C2F8DC60D2F8DC0040F0804018
S113F530C2F8DC009A6842F001029A601D62986A7F
S113F54040F0010098621A461846D368DB07FCD5E0
S113F550CB6843F40043CB60C36843F00103C3604A
S113F560F3E700BF00500640C0F00F4000C0044065
S113F57000700340005A6202544B5548554A56499C
S113F58030B458604FF6FF754FF404541A209D6050
S113F5901C601061D1F800324F4A13F40003F9D112
S113F5A0012040F20111C2F80032C2F80802C2F888
S113F5B00412D2F800320343C2F80032D2F8003207
S113F5C0DB01FBD54449D1F80033434A13F400036B
S113F5D0F9D140F20111C2F80033C2F80833C2F87D
S113F5E00413D2F8003343F00103C2F80033D2F815
S113F5F000333949DD01FAD5D1F80031DC0135D4C5
S113F600D1F80023354B364812F0807F08BF1846E6
S113F6103149D1F80036304A13F40003F9D140F2ED
S113F6200224C2F800361146C2F80446C2F808069D
S113F630D1F80026284B1002FAD4D3F8002642F061
S113F6400102C3F80026D3F800262349D201FAD5D3
S113F650244B4B61D1F80036DD0109D51E4A1369EC
S113F660C3F30363062BFAD130BC70471B48CFE7C2
S113F670D1F80031DC0120D518481749D1F80036FB
S113F680154A13F40003F9D140F20224C2F80036FB
S113F6901146C2F80446C2F80806D1F800260E4BFB
S113F6A01002FAD4D3F8002642F00102C3F800266F
S113F6B0D3F80026D201FBD5D0E7D1F80023074BBD
S113F6C0074812F0807F08BF1846D6E7002005409F
S113F6D020C528D9008004400040064000051800D9
S113F6E0010518001200010610B5431E0A44914298
S113F6F004D011F8014B03F8014FF8E710BD10B521
S113F700044600F002F8204610BDC9B21F2A10B505
S113F7100C4630D9434213F0030306D0D21A0344F3
S113F72000F8011B9842FBD100E0034631B10C0400
S113F73044EA01640C4344EA012400E00C46510904
S113F7400DD003EB41111C605C609C60DC601C61AB
S113F7505C619C6120338B4243F8044CF3D1C2F3C7
S113F760820129B103EB810143F8044B8B42FBD1A5
S113F77002F00302184622B1024400F8014B904201
S107F780FBD110BDE8
S903F411F7
